:100000000C9420020C94B16A0C94DA6A0C94036B81
:100010000C942C6B0C94556B0C947E6B0C94A76B0E
:100020000C94D06B0C94F96B0C94226C0C944B6C6C
:100030000C94746C0C949D6C0C94C66C0C94EF6CCA
:100040000C94186D0C94416D0C946A6D0C94936D26
:100050000C94BC6D0C94E56D0C940E6E0C94376E84
:100060000C943D020C943D0281099109EC09FC09B4
:10007000E90D0A0E7F098F0CD40CCB0A710B8C0B87
:100080005F0D930B930B3C0E110E140E170E1A0EF0
:100090001D0E200E260E230E300E330E360E390E98
:1000A0003210321032104910520A650A7A0B830B53
:1000B000780A7F0A5A0E2111860A880A8A0AD70D01
:1000C000E00D610E7A0ED60E4B0F530E9B0DB50D43
:1000D0000C0A4C0EBC0DEB10EB101F115310B30F9C
:1000E000780FD709A00ABA0FA20AE70FF30FA40AE4
:1000F000B10ABE0A480A2C0A8C0A32103210321099
:10010000FF0FFF0F9B0F310B2610310FE50EE80E8E
:10011000040F2E0F2E0F2E0F2E0F2E0F2E0F2E0F21
:100120002E0F2E0F2E0F2E0F2E0F2E0F2E0F2E0FE7
:100130002E0F2E0F2E0F2E0F2E0F070F0A0F2E0F22
:100140002E0F2E0F2E0F2E0F2E0F180F2E0F2E0FDD
:100150002E0F2E0F2E0F2E0F2E0F2E0F2E0F2E0FB7
:100160002E0F2E0F2E0F2E0F2E0F2B0F4B10731046
:100170007310731073107310731073107310731067
:100180006A106A106A106A106A106A1073106A1096
:100190006A106A106A106A107310731073104B1093
:1001A00073107310731073107310731073104B105F
:1001B0004B104B104B10731073107310731073109F
:1001C0007310731073107310731073107310731017
:1001D00073104B1055107310731073104B10731075
:1001E0004B10151351139013A31324174617B91965
:1001F000731873185E144D147318D814A316A3162D
:100200008E174E17541759175C17601765176B1721
:10021000751773187D17821788176A186A1874166D
:10022000B719731873183B14441425143014731839
:10023000561458145A145C14F7153C1673186A189F
:10024000731873187318AE15B815BC127318C3154C
:100250009E17AF17BA12A318ED17F4177318731877
:100260007318731873187318CD12E512FD12061463
:10027000CE13BA136A186A186A18201820180818BA
:10028000A4145B189D188B198B198B198B198B195A
:100290008B198B198B198B1943194319431943195E
:1002A000431943198B19CA188B1943194319431958
:1002B0008B198B198B199D188B198B198B198B190D
:1002C0008B198B198B199D189D189D189D188B19CA
:1002D0008B198B198B198B198B198B198B198B19FE
:1002E0008B198B198B198B198B199D18A518E51E65
:1002F0001A1FCA1F32206A209D20E1202D216A2169
:10030000B02100225322A822DF22152352237C2B66
:100310008A23BF236B2B6B2B6B2BFB236B2B6B2B42
:100320006B2B5E1F8A28C028F628332969299F294C
:10033000D529452ACA2AFF2A0D2A8C2A352B33248F
:10034000A924DF248D253E255B269E26DA260C2651
:1003500025276327AA276C24F2272B286B2BCB2574
:10036000DF1EB63CBD3CD23CAC3CD23CD23CD23C85
:10037000E93CB63CD23CD23CB63CD23CD73CE93C12
:10038000E93CE93CE93CE93CE93CE93CE93CE93C45
:10039000E93CE93CE93CE93CD23CE93CE93CB13C84
:1003A000A03DD23DA43D5D3E5D3E5D3E5D3E5D3E79
:1003B0005D3E5D3E5D3E5D3E5D3E5D3E5D3E5D3E65
:1003C000A83DCA3DEE3DFD3DCE3D91439C43C0431B
:1003D0008143C043C043C0430B449143C043C04327
:1003E0009143C043D443CC430B440B440B44EB43F5
:1003F000F9430B440B440B440B440B440B440B4498
:10040000C0430B440B4489437C44CE44844456454A
:100410005645564556455645564556455645564504
:1004200056455645564556458C4496440745A64480
:100430009E44A56E8F6E916E956E996E9D6EA16EA7
:1004400011241FBECFEFD8E0DEBFCDBF12E0A0E089
:10045000B1E0E0E1F0EF02C005900D92A037B107E6
:10046000D9F724E0A0E7B2E001C01D92A83CB20792
:10047000E1F70E946F020C9406780C940000672B41
:10048000682B692B11F080E0089581E00895CF93E7
:10049000DF93CDB7DEB7CF5FD4400FB6F894DEBFA1
:1004A0000FBECDBF69E371E0CE0101960E94280323
:1004B0000E943F02811109C0C852DB4FE881F981D7
:1004C000C85DD440CE0101960995C150DB4F0FB6EF
:1004D000F894DEBF0FBECDBFDF91CF9108950E948B
:1004E000AF020E944702FFCF209172023091730247
:1004F000409174025091750260917602709177027A
:100500008091780290917902A1E00E94627220931A
:100510007202309373024093740250937502609399
:10052000760270937702809378029093790208950F
:1005300024EF31E040E050E061E081E00E9468702B
:1005400081110BC064E772E08BE00E94746E62E080
:1005500081E00E94437081E0089580E008950E9448
:10056000980281700895DF92EF92FF920F931F938C
:10057000CF93DF9300D000D0CDB7DEB78091860453
:1005800081115AC0EEE7F2E08AE0DF01982F1D9258
:100590009A95E9F70AE712E0D8011196FC93EE93D9
:1005A00012968C93129713961C9282E390E09C8390
:1005B0008B83FA83E98344E050E066E471E0CE0186
:1005C00001960E94686AF8012081318183810F2E93
:1005D000F4E3DF2EF02DF901D89EE00DF11D11247A
:1005E0000F2EFDE3EF2EFAE6FF2EF02DF3AAE2AA7E
:1005F0008F5FD80113968C93D89E200D311D112446
:100600003A83298343E050E06BE471E0CE01019628
:100610000E94686AF80183810190F081E02DD89EE4
:10062000E00DF11D1124F3AAE2AA8F5FD801139601
:100630008C9381E0809386040F900F900F900F9021
:10064000DF91CF911F910F91FF90EF90DF90089570
:100650006F927F928F929F92AF92BF92CF92DF92D2
:10066000EF92FF920F931F93CF93DF93CDB7DEB737
:10067000C054D1090FB6F894DEBF0FBECDBF7C01C8
:100680004B01FC01E753FB4F11821082ED55F44002
:10069000108232961082EF5FFE4F108247E050E0EA
:1006A0006FE471E0C4010E94D874892B81F046E0A8
:1006B00050E067E571E0C4010E94D874892B09F00D
:1006C000BFC0D40116968C918F3209F0A2C00E944F
:1006D000B302B401CE0101960E94516A6EE571E049
:1006E000CE0101960E94AF746C0160907D0266207D
:1006F000F1F100917A0210917B02712C5801B8013E
:10070000C6010E94CF74892B41F5F40180818536A2
:1007100021F48401095F1F4F03C084010A5F1F4F4A
:1007200040E450E0B401C70186960E94E674D5010A
:10073000D296ED91FC91D397A801B7016A577E4FED
:10074000C70188589E4F09954B015C0161157105E1
:100750008105910509F470C00FC073940C5C1F4FA4
:100760007610CCCF61E070E080E093E076C061E08D
:1007700070E080E093E071C0792D8A2D9B2D6DC0D3
:100780006EE571E0C4010E94AF746C0160907D025F
:10079000662009F443C000917A0210917B02712C0B
:1007A0005801B801C6010E94CF74892B41F5F601AA
:1007B00001900020E9F7BF016C197D096F5F7F4F41
:1007C000680D791D40E450E087010A5D1F4FC801A4
:1007D0000E94E674D501D296ED91FC91D397A801C1
:1007E000B7016A577E4FC70188589E4F09954B0144
:1007F0005C01611571058105910561F114C0739467
:100800000C5C1F4F7610CCCF61E070E080E093E08D
:1008100024C060E170E080E093E01FC061E070E020
:1008200080E093E01AC0792D8A2D9B2D16C060E1DF
:1008300070E080E093E011C0C7010E94E71D0DC089
:1008400047E050E060E671E0C4010E94D874892B53
:1008500071F396CFC7010E94E71DC05CDF4F0FB652
:10086000F894DEBF0FBECDBFDF91CF911F910F91E6
:10087000FF90EF90DF90CF90BF90AF909F908F90C0
:100880007F906F9008954F925F926F927F928F92B8
:100890009F92AF92BF92CF92DF92EF92FF920F930F
:1008A0001F93CF93DF93EB016881623009F048C05A
:1008B000188619861A861B866C85662309F497C0EC
:1008C000280139015A014C01C12CD12C7601EE0CC2
:1008D000FF1CEE81FF81EE0DFF1D60817181930190
:1008E0008201A501C4010E944304611571058105BF
:1008F000910509F081C08E819F81FC01EE0DFF1DE5
:100900000190F081E02D488559856A857B8581813C
:100910009281A381B481840F951FA61FB71F88877A
:100920009987AA87BB878FEFC81AD80A8C8590E071
:10093000C816D9065CF240E030E020E090E078C0D4
:10094000613009F05DC08C85815061E070E02B0161
:1009500002C0440C551C8A95E2F7052C000C660871
:1009600077080421152126213721012B022B032B87
:1009700009F44BC00A851B850115110561F1FA01C7
:10098000638170E0A0E0B0E014C0339620812317AB
:1009900061F0019686179707C1F747E035E020E040
:1009A00092E046C061157105A9F111960A171B075F
:1009B00091F016161706B4F7EE81FF81EA0FFB1FC0
:1009C0003081FA01E080F180F7018081381751F31E
:1009D00080E090E0DECFEF85F889309701F18081EB
:1009E000893311F140E030E020E090E021C040E0A8
:1009F00030E020E090E01CC0462F372F282F18C091
:100A000040E030E020E090E013C042E034E020E03D
:100A100092E00EC047E035E020E092E009C040E0FF
:100A200030E020E090E004C043E030E020E093E0DC
:100A3000642F732F822FDF91CF911F910F91FF9021
:100A4000EF90DF90CF90BF90AF909F908F907F906E
:100A50006F905F904F900895FC01E952FB4F019019
:100A6000F081E02D099508956F3179F4DC019296BB
:100A7000ED91FC9193978EE1DA0101900D928A95A8
:100A8000E1F760E070E0CB010895FC01EB52FB4F11
:100A90000190F081E02D099508954F925F926F9239
:100AA0007F929F92AF92BF92CF92DF92EF92FF928E
:100AB0000F931F93CF93DF9300D000D000D0CDB71A
:100AC000DEB7DC0112968D919C9113979E838D83E6
:100AD000892B29F12701580129833A834B835C83B1
:100AE000962E052C000C66087708ED81FE81C280E9
:100AF000D3800190F081E02D83017201950149813D
:100B00005A816B817C81892D0995AD81BE811496B6
:100B10000D90BC91A02DBE83AD83AB2B31F72696F3
:100B20000FB6F894DEBF0FBECDBFDF91CF911F91FE
:100B30000F91FF90EF90DF90CF90BF90AF909F907C
:100B40007F906F905F904F900895EF92FF920F9378
:100B50001F93FC0181E0808370E071876087738759
:100B6000628757834683248716861586108A1786E0
:100B7000E182F28203831483118A128A138A148A0F
:100B8000158A168A178A158E148E118E108E138E62
:100B9000128E158260E070E0CB011F910F91FF90E3
:100BA000EF900895CF92DF92EF92FF920F931F93F1
:100BB000CF93DF93EC011982FC01EC58FE4F1182B8
:100BC00010821B821A826C0184E0C80ED11CE12CB9
:100BD000F12C8701E39425E040E050E060E0C6019D
:100BE0000E94A505DBA2CAA2FE01EA59FF4F1082AE
:100BF0003296108232961082E35FFE4F1082EA50E6
:100C0000F1401082ED5FFE4F10821182128213823A
:100C1000EE59FC4F8FEF91E091838083CC52DB4FF4
:100C2000188260E070E0CB01DF91CF911F910F91AE
:100C3000FF90EF90DF90CF900895CF92DF92EF92E8
:100C4000FF920F931F93CF93DF93CDB7DEB7A0979B
:100C50000FB6F894DEBF0FBECDBF8C01F62EAE01ED
:100C60004F5F5F4F80E2FA0111928A95E9F7C80160
:100C70000E943405672B682B692BD1F5F801808120
:100C80008230B1F58F2D829586958770F4E08F9F25
:100C9000000D111D11248F2D8F7141E050E060E097
:100CA00070E06A017B0104C0CC0CDD1CEE1CFF1C53
:100CB0008A95D2F7D701C601F801E859FD4F408166
:100CC0005181628173814C295D296E297F2940837E
:100CD0005183628373833C97408151816281738128
:100CE000842B952BA62BB72B80839183A283B38370
:100CF000A0960FB6F894DEBF0FBECDBFDF91CF91A7
:100D00001F910F91FF90EF90DF90CF900895FF9289
:100D10000F931F93CF93DF9300D000D0CDB7DEB7F2
:100D2000FC01E65AFD4F2081261709F46DC0F62E0E
:100D30008C010E945F3B611571058105910509F0E9
:100D400068C0F801E85AFD4F8081882391F081E066
:100D50008983AE014F5F5F4F62E0C8010E94903C03
:100D6000611571058105910521F0462F372F282F38
:100D700057C0F801E65AFD4FF082A8014A565B4F72
:100D80006CE0C8010E94903C6115710581059105D8
:100D900009F043C0F801E956FB4F80819181A2819F
:100DA000B3818F3F2FEF9207A207B20729F0482F98
:100DB000392F2A2F8B2F04C040E030E020E080E064
:100DC00049833A832B838C83AE014F5F5F4F6DE085
:100DD000C8010E94903C611571058105910521F0C3
:100DE000462F372F282F1CC0F801E956FB4F898169
:100DF0009A81AB81BC8180839183A283B38340E0DD
:100E000030E020E090E00CC040E030E020E090E0F6
:100E100007C0462F372F282F03C0462F372F282FE4
:100E2000642F732F822F0F900F900F900F90DF91F0
:100E3000CF911F910F91FF9008954F925F926F9203
:100E40007F928F929F92AF92BF92EF92FF920F93F9
:100E50001F93CF93DF93CDB7DEB7CA54D1090FB636
:100E6000F894DEBF0FBECDBF8C0180E222968FAF1B
:100E70002297AE014F5F5F4FBE016F5B7F4FC8018E
:100E80000E94923E611571058105910509F00BC123
:100E9000F801ED5AFD4F1082118212821382E35C39
:100EA000FD4F808191818130910521F0029709F4F5
:100EB0005CC065C089E0E0E0F1E0DE01AE5BBF4F01
:100EC00001900D928A95E1F783E022968FAF2297E9
:100ED0009E012E5B3F4F4901F801E552FE4FCE01C6
:100EE000019678013CE1E31A3EEFF30A412C512CC4
:100EF000320121E030E0D401BC904FEF4B0DB9013D
:100F000002C0660F771F4A95E2F7AB01052E000C71
:100F1000660B770B442A552A662A772AB0821296E6
:100F20004C911297428311964C914183D80194962B
:100F30004C9141110AC0DC0111964C911197442348
:100F400021F04C91D80194964C93B3E08B0E911CF8
:100F500033960296EE15FF0571F6F801ED5AFD4F36
:100F6000408251826282738282C0F801ED5BFD4F44
:100F70008081803221F433968081823031F0229654
:100F80008FAD229781112BC072C081E022968FAF66
:100F900022972981F801ED5AFD4F3FEF320F81E092
:100FA00090E002C0880F991F3A95E2F7092E000CD5
:100FB000AA0BBB0B80839183A283B383E857F1090B
:100FC00020833196208331962083F80184A18111FA
:100FD0004EC08A81882309F44AC024A348C09E01D8
:100FE0002F5F3F4F3901F801E552FE4F815090E0ED
:100FF0009C01220F331F280F391F22523E4F200F12
:10100000311F812C912C5401EE24E394F12CD30157
:101010008C919FEF980FA70102C0440F551F9A951E
:10102000E2F7052E000C660B770B842A952AA62A78
:10103000B72A808381838283D80194969C919111F1
:1010400008C0D30111969C91992319F0D801949668
:101050008C93B2E06B0E711C3396E217F307B9F66E
:10106000F801ED5AFD4F80829182A282B382F8018D
:10107000E35CFD4F80E28083319622968FAD22970C
:101080008083D801A55CBD4FC80185529E4F119643
:101090009C938E93E257F109B183A08340E030E046
:1010A00020E090E003C0462F372F282F642F732FA6
:1010B000822FC65BDF4F0FB6F894DEBF0FBECDBFE9
:1010C000DF91CF911F910F91FF90EF90BF90AF9064
:1010D0009F908F907F906F905F904F9008956F9248
:1010E0007F928F929F92AF92BF92CF92DF92EF92B8
:1010F000FF920F931F93CF93DF93CDB7DEB7C15EFF
:10110000D1090FB6F894DEBF0FBECDBF7C018B01B5
:101110006A0180E2CF51DF4F8883C15ED040AE01CB
:101120004F5F5F4FBE016F517F4FC7010E94FF3E6F
:10113000611571058105910509F070C0CF51DF4F30
:101140008881C15ED040882309F45FC0F601EE0FAC
:10115000FF1F81E090E08C0F9D1FE80FF91F3C01FD
:1011600060E070E040E050E0BDEBEB1ABDEFFB0A41
:101170006F012181328121153105B1F1D7019C9197
:101180009F7E903219F42115304871F1D8011296E2
:101190008C9190E06817790728F5CB01880F991F8B
:1011A000880F991F860F971FD301BC90D8012D91EE
:1011B0003C91280F391FD901BC92D8012D913C9147
:1011C000820F931FD60111968D909C901297092C37
:1011D000000CAA08BB08DC0111968D929D92AD927D
:1011E000BC9214976F5F7F4F4F5F5F4F3796B7E0AA
:1011F0006B0E711CCF51DF4F2881C15ED04030E0B3
:101200004217530708F4B4CF02C060E070E0F80161
:10121000638340E030E020E090E003C0462F372FAA
:10122000282F642F732F822FCF51DF4F0FB6F894E2
:10123000DEBF0FBECDBFDF91CF911F910F91FF9009
:10124000EF90DF90CF90BF90AF909F908F907F9066
:101250006F9008953F924F925F926F927F928F921C
:101260009F92AF92BF92CF92DF92EF92FF920F9335
:101270001F93CF93DF93CDB7DEB7C358D1400FB6DE
:10128000F894DEBF0FBECDBF262F2295269527707E
:101290006C0134E0239FC00CD11C1124A62FAF7128
:1012A0003A2EF601E45AFD4F80809180A280B380EF
:1012B0000A2E04C0B694A794979487940A94D2F700
:1012C00080FE0EC03C9680809180A280B38004C0D6
:1012D000B694A79497948794AA95D2F780FE60C796
:1012E0005A01162F7C01862F90E0FC013197E135E1
:1012F000F10508F0B7C6EC5CFF4F0C941A7264E07D
:10130000CBC6F701E853FE4F80819181A281B38162
:10131000FA0180839183A283B383412C512C320143
:10132000E2C6F701EC55FB4F20813181DA011296BC
:101330008D919C9113978217930708F045C791836D
:101340008083892B09F44FC720E030E080E0D7018B
:10135000A056BB4FECE5EE1AEBEFFE0A220F331F4F
:10136000220F331FED91FC911197E20FF31F408084
:10137000518062807380F50140815181FA01E20F52
:10138000F31F40825182628273828F5F282F30E088
:10139000F701408151812417350700F3D5011596D7
:1013A0005C934E931497412C512C32019CC6452BD3
:1013B00009F41DC7B7016A5D7F4FFB010190002052
:1013C000E9F73197AF01461B570BC5010E94686AC8
:1013D000412C512C320187C6F701EA52FE4F808121
:1013E0009181A281B381FA0180839183A283B38327
:1013F000412C512C320177C6F701EE52FE4F80810D
:101400009181A281B381FA0180839183A283B38306
:10141000412C512C320167C6F701E652FE4F808104
:1014200081110CC0D70111968C91882359F0BF010E
:10143000C7010E9494422B013C0107C0412C512C52
:10144000320103C0412C512C3201F701E652FE4F0C
:101450008081F501808347C6F701ED5BFD4F8081F8
:1014600098EE980F923020F08F7E803209F0C8C637
:10147000F701E956FB4F80819181A281B381F5018B
:1014800080839183A283B383412C512C32012BC6DC
:10149000F701EA56FB4F8081DA018C93412C512CE5
:1014A000320121C6BE016F5F7F4FC7010E944E40CF
:1014B0002B013C01672B682B692B09F014C68B812B
:1014C0009C81F501918380830EC6BE016F5F7F4FC3
:1014D000C7010E944E402B013C01672B682B692BF2
:1014E00009F001C68D819E81D5018D939C93FBC52A
:1014F000BA01C7010E940E402B013C01F4C5BA019C
:10150000C7010E9496402B013C01EDC569E0C4C5AE
:1015100060E0C2C568E0C0C5F701ED5BFD4F8081AA
:1015200098EE980F923020F08F7E803209F071C6CD
:10153000A5016BE0C7010E9451432B013C01D3C5BB
:1015400062E1AAC563E1A8C5F701EF52FB4F9081A4
:1015500081E093FF80E0F5018083412C512C320122
:10156000C2C5F701EF52FB4F908181E091FF80E00F
:10157000D5018C93412C512C3201B5C5F701EF52A6
:10158000FB4F908181E092FF80E0F5018083412C48
:10159000512C3201A8C5A7014C525B4F63E0C70133
:1015A0000E9451432B013C01672B682B692B09F0EA
:1015B0009AC5D50115961C921E921497F701EC520C
:1015C000FB4F808180FF10C081E090E015969C93D6
:1015D0008E93149712968D919C911397892B21F0DD
:1015E000ED91FC9181E08083F701EC52FB4F80810B
:1015F00081FF14C0F501848195819C012F5F3F4FCD
:1016000035832483428153814217530738F0208168
:101610003181F901E80FF91F22E02083F701EC5234
:10162000FB4F8081837009F45EC5D50114968D91BE
:101630009C9115979C012F5F3F4F15963C932E93DD
:10164000149712964D915C9113974217530708F423
:101650004AC52D913C91F901E80FF91F23E0208341
:1016600042C5AE014F5F5F4F6EE1C7010E9451431B
:101670002B013C01672B682B692B09F034C5F50160
:1016800015821482898180FF0DC081E090E09583EE
:10169000848382819381892B29F00190F081E02D50
:1016A00081E08083898181FF1EC5D50114968D91CB
:1016B0009C9115979C012F5F3F4F15963C932E935D
:1016C000149712964D915C9113974217530708F4A3
:1016D0000AC52D913C91F901E80FF91F22E0208302
:1016E00002C542E050E0B501C7010E946F082B011E
:1016F0003C01F9C440E050E0B501C7010E946F0809
:101700002B013C01F0C441E050E0B501C7010E944B
:101710006F082B013C01E7C4BA01C7010E94A03F3A
:101720002B013C01E0C4FA0115821482F701ED5B44
:10173000FD4F808198EE980F923020F08F7E80329E
:1017400009F0C0C08FEFF701E55AFD4F808380E1BB
:10175000C050DF4F8883C050D140AE014F5F5F4F14
:10176000BE017395C7010E9488412B013C01672B84
:10177000682B692B09F0A1C091E080E01F3009F0CF
:1017800090E0C058DE4F9883C058D140CF57DE4F0D
:101790008883C158D140F701E55AFD4F80818F3FC2
:1017A00009F043C01082C050DF4F8881C050D14043
:1017B000882309F463C488248394912CCE57DE4F88
:1017C000F983E883C258D140AE0141585E4F682D7D
:1017D000C7010E941D42611571058105910509F03F
:1017E0006AC0C158DE4F8881CF57D140882389F025
:1017F000CE57DE4FA881B981C258D1402C9181E0EB
:1018000090E0082C02C0880F991F0A94E2F7822BFF
:101810008C93BFEF8B1A9B0AC050DF4F8881C0505A
:10182000D14090E0881599057CF6C050DF4F888143
:10183000C050D140882309F421C481E090E0F70131
:10184000E55AFD4F2081022E000C330B082E02C0FA
:10185000359527950A94E2F721703327C058DE4F5B
:1018600048815981C058D14042175307C9F4D50166
:1018700014962D913C911597A9014F5F5F4F1596D6
:101880005C934E93149712966D917C911397641705
:10189000750730F04D915C91DA01A20FB31F8C9364
:1018A0000196C050DF4F2881C050D14030E028174A
:1018B000390744F6E3C32B013C01642D752D862DB9
:1018C000972DD8C481E090E0FA01958384838281CA
:1018D0009381892B29F00190F081E02D81E08083B4
:1018E000D50114968D919C9115979C012F5F3F4FC8
:1018F00015963C932E93149712964D915C911397E5
:101900004217530708F4B7C32D913C91F901E80F32
:10191000F91F22E02083412C512C3201AFC3FA0180
:1019200015821482F701E453FE4F0190F081E02DFF
:101930008381882309F476C490E0F4E3EF1AFEEF84
:10194000FF0AD50114964D915C9115979A012F5F6E
:101950003F4F15963C932E93149712966D917C9160
:10196000139762177307A8F0D701ED91FC91292F07
:1019700030E0D901AA0FBB1F2A0F3B1FA081B18104
:10198000A20FB31F8C91D501ED91FC91E40FF51FCF
:1019900080839F5FD701ED91FC918381981788F236
:1019A000412C512C32019FC3FE01F395CF0180964B
:1019B0001192E817F907E1F780E2C158DE4F8883FA
:1019C000CF57D140AE014F5F5F4FBE0161587E4F90
:1019D000C7010E94923E2B013C01672B682B692BAB
:1019E00009F081C3C158DE4F8881CF57D140882389
:1019F000B1F0FE013196815090E00196880F991F59
:101A00008E0F9F1F2081A0E0B1E0AC0FBD1FA20F81
:101A1000B11D21812C933296E817F90799F7F5014A
:101A200015821482F701E453FE4F0190F081E02DFE
:101A30008381882309F457C390E024E3E21A2EEF50
:101A4000F20A292F30E0A901440F551F240F351F3A
:101A50000190F081E02DE20FF31F818120E031E061
:101A60002C0F3D1F280F311DD9018C918823F9F0CF
:101A7000828120E031E02C0F3D1F280F311DD9015C
:101A80008C918823A1F08081F50124813581A90101
:101A90004F5F5F4F5583448362817381641775077D
:101AA00030F040815181FA01E20FF31F80839F5F84
:101AB000D701ED91FC918381981718F214C3F701B7
:101AC000E453FE4F60817181DB011396EC91EE23AC
:101AD00059F1DA0112968C91882331F120E030E03F
:101AE00080E090E0D501ED91FC91AF01420F531FD2
:101AF000FB01A081B181A20FB31F6D907D908C90EE
:101B0000DA016D927D928C920196E3814E2F50E026
:101B10008417950748F42D5F3F4FD50112964C91DD
:101B200050E084179507F0F2D5011396EC93412C01
:101B3000512C3201D8C2FA018281898340815181BE
:101B4000BE016F5F7F4FC7010E94D6402B013C0151
:101B5000672B682B692B09F0C6C2898190E0D501FB
:101B600015969C938E931497BEC2BA01C7010E942A
:101B700046412B013C01B7C260E4C7010E94BC4250
:101B80002B013C01611571058105910509F4ABC27A
:101B9000892F9927AA27BB270297A105B10509F02C
:101BA000A2C2F5011082412C512C32019CC2D701F6
:101BB00094968C91FA018083412C512C320193C26E
:101BC000D70195968C91FA018083412C512C3201DA
:101BD0008AC2D70111968C91882391F0BE016F5F64
:101BE0007F4FC7010E9401432B013C01672B682BEB
:101BF000692B49F48981F701E75AFD4F808303C0BF
:101C0000412C512C3201F701E75AFD4F8081F5013B
:101C1000808369C2BA01C7010E9429432B013C019C
:101C200062C202E165E057C202E065E054C200E032
:101C300065E051C201E065E04EC200E165E04BC2E3
:101C400001E165E048C203E165E045C2F701E15703
:101C5000FC4F8081DA018C93412C512C320143C21C
:101C600004E165E038C200E163E035C201E163E010
:101C700032C202E163E02FC2F701E253FE4F8081DE
:101C80009181A281B381FA0180839183A283B3837E
:101C9000412C512C320127C2BA01C7010E946B4B63
:101CA0002B013C0120C2BA01C7010E94D64A2B0178
:101CB0003C0119C2BA01C7010E94C04B2B013C0173
:101CC00012C28E010F5F1F4FB801C7018D5B9D4F80
:101CD0000E948B6AF80101900020E9F73197AF016B
:101CE000401B510BB801C5010E94686A412C512C60
:101CF0003201F9C18FE7C158DE4F8883CF57D140F9
:101D00008E0113959E0121583E4F40E460E0C701CB
:101D10000E945A33672B682B692BC9F5CD5FDE4FC4
:101D20002881C350D140422F50E0C158DE4F688116
:101D3000CF57D140862F90E0039784179507ACF0DA
:101D400014161506ECF4F8013496DE0111969A018A
:101D50002C5F3F4F200F311F81918D932E173F072E
:101D6000D9F7412C512C320110C040E050E00F2E29
:101D7000F2E04F2E512C612CF3E07F2EF02D05C0A8
:101D800040E050E0412C512C3201611108C0D501D6
:101D9000ED91FC911082412C512C3201A4C1BE0165
:101DA0006F5F7F4FC5010E94686A9DC1F701ED5BBF
:101DB000FD4FE0818E2F90E08133910508F04EC0F9
:101DC000FC01EB57FF4F0C941A7261E771E054C0AD
:101DD000F701EA5BFD4F8081823051F020F48130C1
:101DE00009F442C00EC0833031F0843039F009C0AC
:101DF0006DE771E041C06EEB71E03EC066EB71E0F3
:101E00003BC067EA71E038C064E871E035C068E85B
:101E100071E032C0F701EA5BFD4F8081823039F119
:101E2000833019F46CE871E027C067EA71E024C0E0
:101E3000F701EA5BFD4F8081823039F0833041F059
:101E40008130C1F464E971E017C06EED71E014C037
:101E50006DEC71E011C06EE971E00EC067EA71E0EF
:101E60000BC06DE671E008C06FEA71E005C065EC7B
:101E700071E002C060E070E0FB0101900020E9F732
:101E80003197AF01461B570BC5010E94686A412C70
:101E9000512C320128C18701015C1D4FBE016F5FCB
:101EA0007F4FC8010C960E948B6A0F2EFDE2FF2E19
:101EB000F02DFC86BE01635F7F4FC80108960E942B
:101EC0008B6AF88E82E4898F8CE48A8FBE01655E0E
:101ED0007F4FC8010E948B6A45E250E0BE016F5FF0
:101EE0007F4FC5010E94686A412C512C3201FBC012
:101EF000F701EC58FE4F0190F081E02D309721F072
:101F00008081882309F451C1F701E153FB4F80819F
:101F10009181892B21F481EC9FE091838083F701EB
:101F2000E153FB4F60817181A501C7010E940368E5
:101F30002B013C01D8C0F701EC58FE4F0190F08115
:101F4000E02D309721F08081882309F433C1F70117
:101F5000E153FB4F80819181F50191838083412C76
:101F6000512C3201C0C06BE0C7010E9412652B01E9
:101F70003C01B9C0F701E057FB4F8081918181306E
:101F8000910539F078F08230910531F0019639F4FD
:101F900009C06CEF71E008C06EE072E005C067EA4E
:101FA00071E002C06CEE71E0A114B10409F43EC10D
:101FB000FB0101900020E9F73197AF01461B570B59
:101FC000C5010E94686A412C512C32018CC0F70176
:101FD000EE56FB4F80819181DA018D939C93412CC9
:101FE000512C320180C0F701EC56FB4F808191816A
:101FF000FA0191838083412C512C320174C0AE01CF
:102000004F5F5F4F65E0C7010E94DC692B013C0117
:10201000672B682B692B91F51D3419F01E3439F0AC
:102020000CC08A819B81D5018D939C9327C0998197
:1020300081E08927F501808321C00F2EF9E04F2E22
:10204000512C612CF3E07F2EF02D18C0F701EE52D9
:10205000FB4F80819181DA018D939C93412C512C0F
:10206000320141C00F2EF9E04F2E512C612CF3E0CC
:102070007F2EF02D03C0412C512C3201812F90E096
:10208000FC013797EB33F10570F5EA54FF4F0C94E0
:102090001A7261E001C061E0A501C7010E945143CD
:1020A0002B013C0120C062E001C061E0F701ED5B63
:1020B000FD4F808198EE980F923008F4C4C08F7E57
:1020C000803209F4C0C0A501C7010E9451432B0111
:1020D0003C0109C065E09501462F502FC7010E94C1
:1020E00037442B013C01F601E45AFD4F40815181F8
:1020F00062817381DB01CA01032C04C0B695A795E8
:10210000979587950A94D2F780FD59C041145104E0
:102110006104710439F0B3E14B1651046104B3E07A
:102120007B0619F5F601E859FD4F81E090E0A0E04B
:10213000B0E0032C04C0880F991FAA1FBB1F0A948C
:10214000D2F70081118122813381802B912BA22B28
:10215000B32B80839183A283B38307C00F2EF3E058
:102160004F2E512C612C742CF02DF601E45AFD4FAA
:1021700081E090E0A0E0B0E004C0880F991FAA1FA2
:10218000BB1F3A94D2F7842B952BA62BB72B8083B9
:102190009183A283B383642D752D862D972D6AC0FC
:1021A00069E070E080E093E065C063E070E080E0AB
:1021B00093E060C063E070E080E093E05BC0642D7A
:1021C000752D862D972D56C0232B09F0BDC8412CA7
:1021D000512C320188CF0F2EF3E04F2E512C612C61
:1021E000742CF02D80CF412C512C32017CCF0F2E3E
:1021F000FEE04F2E512C612CF3E07F2EF02D73CF9B
:102200000F2EF9E04F2E512C612CF3E07F2EF02D94
:102210006ACF0F2EF9E04F2E512C612CF3E07F2E68
:10222000F02D61CF412C512C32015DCF0F2EFEE0FD
:102230004F2E512C612CF3E07F2EF02D54CF6AE00D
:102240002BCF66E029CFF601E45AFD4F4081518142
:1022500062817381DB01CA01032C04C0B695A79586
:10226000979587950A94D2F780FF78CF63E070E066
:1022700080E093E0CD57DE4F0FB6F894DEBF0FBE7F
:10228000CDBFDF91CF911F910F91FF90EF90DF9025
:10229000CF90BF90AF909F908F907F906F905F9006
:1022A0004F903F9008952F923F924F925F926F927E
:1022B0007F929F92AF92BF92CF92DF92EF92FF9266
:1022C0001F93CF93DF93CDB7DEB7C15ED1090FB6B1
:1022D000F894DEBF0FBECDBF1C017B015A0180E226
:1022E000CF51DF4F8883C15ED040AE014F5F5F4F5B
:1022F000BE016F517F4FC1010E94FF3E6115710504
:102300008105910509F0A3C0F701838190E0009752
:1023100009F48EC0AA0CBB1C6C01CC0CDD1CCC0CCF
:10232000DD1CC80ED91EA0E0B0E021E030E02C0F8B
:102330003D1FA20EB31E60C0295F3F4FF9013797C2
:102340004081451781F1019686179707A9F710324A
:1023500009F481C0F70180819181FC01EA0FFB1F24
:102360008081FB01EE0FFF1FEE0FFF1FEE0FFF1F1F
:10237000E61BF70B21E030E02C0F3D1FE20FF31FAF
:10238000808312821182148213821682158299240C
:102390009394910ECF51DF4F9882C15ED040CB0114
:1023A00002C080E090E0F70120813181F901EA0F5D
:1023B000FB1F41815281638174812A013B01F0E856
:1023C0005F0E611C711C4114510421E0620671040E
:1023D00008F046C0FC01EE0FFF1FEE0FFF1FEE0FCF
:1023E000FF1FE81BF90B3196EA0DFB1D518340835B
:1023F0001596AC15BD05E1F0CF51DF4F1881C15ED8
:10240000D040612F70E06115710509F4A0CFF7018C
:1024100080819181FC01EA0FFB1F5081898158174F
:1024200009F4BFCF9E01285F3F4F80E090E08BCF43
:10243000AE014F5F5F4FCF51DF4F6881C15ED0402B
:10244000C1010E94B33A462F372F282F0DC0462FC7
:10245000372F282F09C046E030E020E093E004C089
:102460004EE030E020E093E0642F732F822FCF51B5
:10247000DF4F0FB6F894DEBF0FBECDBFDF91CF9117
:102480001F91FF90EF90DF90CF90BF90AF909F9003
:102490007F906F905F904F903F902F9008952F9274
:1024A0003F924F925F926F927F928F929F92AF92E4
:1024B000BF92CF92DF92EF92FF920F931F93CF9331
:1024C000DF93CDB7DEB7C150D1400FB6F894DEBF71
:1024D0000FBECDBF7C01D62E8A01862F82958695B0
:1024E0008770570124E0829FA00CB11C1124362F65
:1024F0003F71932EF501E45AFD4F80819181A281B5
:10250000B38104C0B695A795979587953A95D2F76C
:1025100080FD14C0C7010E941D06F501E45AFD4F5D
:1025200080819181A281B381092C04C0B695A795C1
:10253000979587950A94D2F780FF10C0F501E85966
:10254000FD4F80819181A281B38104C0B695A7958A
:10255000979587959A94D2F780FF9DC68D2D90E030
:10256000FC013197E135F10508F0B4C5EF50FF4F9C
:102570000C941A726AE0E2C5D8016C91F701E65238
:10258000FE4F6083F7018181882309F4F4C6C701F7
:102590000E941B3C4B015C0153C7D8018C918823DE
:1025A00051F0F701EF52FB4F808188608083812CCE
:1025B000912C540145C7F701EF52FB4F8081877F73
:1025C0008083812C912C54013BC7F80180818823A2
:1025D00051F0F701EF52FB4F808182608083812CA4
:1025E000912C54012DC7F701EF52FB4F80818D7F55
:1025F0008083812C912C540123C7D8018C9188238E
:1026000051F0F701EF52FB4F808184608083812C71
:10261000912C540115C7F701EF52FB4F80818B7F3E
:102620008083812C912C54010BC7F801408051808C
:1026300062807380D70111968C91882339F1F7015C
:10264000E858FE4F80859185892B09F498C6B3011F
:10265000A201C7010E943A334B015C01672B682B32
:10266000692B09F0EDC6C70188589E4FF701E85362
:10267000FE4F4082518262827382DC011896ED9196
:10268000FC911997B301A2010995DAC6F701E85345
:10269000FE4F4082518262827382812C912C5401C0
:1026A000CFC6F80144815581F701EE55FB4F80817B
:1026B00091818417950708F466C64115510539F1D3
:1026C00080E090E020E06701F0E6CF1AFBEFDF0A40
:1026D000880F991F880F991FD801ED91FC91E80F81
:1026E000F91F4081518162817381D601ED91FC9186
:1026F000E80FF91F40835183628373832F5F822F1A
:1027000090E0F801448155818417950708F3F7019B
:10271000EC55FB4F51834083812C912C540190C682
:10272000F80180819181A281B381BB230CF434C66E
:10273000F701EA52FE4F80839183A283B383812CF9
:10274000912C54017DC6F80180819181A281B381D1
:10275000BB230CF42AC6F701EE52FE4F808391830F
:10276000A283B383E753FD4F81E08083812C912CBA
:10277000540166C6F701ED5BFD4F808198EE980F1E
:10278000923020F08F7E803209F018C6A8016BE0ED
:10279000C7010E94903C4B015C0152C6F701ED5B02
:1027A000FD4F808198EE980F923020F08F7E80321E
:1027B00009F00DC6F80180819181A281B3818F3F1C
:1027C000FFEF9F07AF07BF0719F480E090E0DC013F
:1027D00089839A83AB83BC83AE014F5F5F4F6DE00B
:1027E000C7010E94903C4B015C01672B682B692B51
:1027F00009F026C6F701E956FB4F89819A81AB8122
:10280000BC8180839183A283B3831AC6F701ED5BF9
:10281000FD4F808198EE980F923020F08F7E8032AD
:1028200009F0DEC5A8016CE0C7010E94903C4B0195
:102830005C01672B682B692B09F002C6D8018C91CB
:10284000F701EA56FB4F8083FBC5F80140815181B7
:1028500062817381C7010E942E3B4B015C01F0C570
:10286000D8014D915D916D917C91C7010E947D3B96
:102870004B015C01E5C540E050E0B801C7010E9492
:1028800053114B015C01DCC541E050E0B801C701C8
:102890000E9453114B015C01D3C542E050E0B801E6
:1028A000C7010E9453114B015C01CAC566E046C4D2
:1028B00069E044C460E042C468E040C4F701EC52FF
:1028C000FB4F1082F80184819581892B49F1828127
:1028D0009381892B29F180E090E0D701AC52BB4F66
:1028E00041E050E0F80120813181F901E80FF91F42
:1028F000208121506A0102C0CC0CDD1C2A95E2F730
:1029000096013C91232B2C930196F801248135816B
:102910008217930728F4228133818217930710F3DB
:10292000A7014C525B4F63E0C7010E94903C4B01F2
:102930005C01672B682B692B09F082C5C7010E94D7
:102940001D074B015C017CC51982D80114962D919D
:102950003C9115972115310509F112964D915C9125
:10296000139741155105D1F0ED91FC912E0F3F1FAA
:102970004E0F5F1F61E070E0819181506B0102C0DA
:10298000CC0CDD1C8A95E2F7C6019981892B8983DD
:10299000E217F30719F0E417F50771F7AE014F5F7F
:1029A0005F4F6EE1C7010E94903C4B015C0148C53E
:1029B000F701E453FE4F60817181D80113964C9169
:1029C0001397FB018281841708F413C550E0411569
:1029D000510509F4BBC00D90BC91A02DF701ED5A33
:1029E000FD4F80809180A280B38011968C911197C9
:1029F000815021E030E0690102C0CC0CDD1C8A95D9
:102A0000E2F70D2C000CEE08FF08C820D920EA20C0
:102A1000FB20CD28CE28CF2809F442C412968C91F1
:102A200012978150690102C0CC0CDD1C8A95E2F737
:102A30000D2C000CEE08FF08C820D920EA20FB204E
:102A4000CD28CE28CF2809F430C49A01220F331F95
:102A5000240F351F2A0F3B1FE0E0F0E0EE24E39443
:102A6000F12C30C0139611968C9111978150F7017B
:102A700002C0EE0FFF1F8A95E2F72F01FF0F6608D5
:102A80007708482059206A207B2045284628472877
:102A900009F410C4F60112968C91129781506701C7
:102AA00002C0CC0CDD1C8A95E2F72601DD0C66081D
:102AB0007708482059206A207B2045284628472847
:102AC00009F4FDC36F018FEFC81AD80AC416D506E2
:102AD000A8F47C9013968C911397781609F4F4C39C
:102AE000CD01069607C00396FC013397E081E715F8
:102AF00009F4EFC328173907B1F7B4CFC416D506C8
:102B000009F0B0CFFF24F394FE0E8F2D90E00097D4
:102B1000F1F0AC01440F551F480F591F80E090E0C1
:102B2000FB01A081B181A80FB91FF801208131817B
:102B3000280F391FF901C080D180E280CD92DD924B
:102B4000EC9203968417950759F701C0F12CDB012D
:102B50001396FC92812C912C540172C4F80140818F
:102B600051816481C7010E94AE3B4B015C0168C486
:102B7000D8014D915D916D917C91C7010E94F93B07
:102B80004B015C015DC480E4CF5FDE4F8883C150A0
:102B9000D140AE014F5F5F4FBE016F5F7E4FC701F7
:102BA0000E94D6404B015C01672B682B692B09F012
:102BB00047C4F8014081F701E652FE4F6081C7012A
:102BC0000E94383C4B015C01672B682B692B09F094
:102BD00037C4AE014F5F5F4FCF5FDE4F6881C1509A
:102BE000D140C7010E94AE3B4B015C0129C4F701F3
:102BF000E453FE4F0190F081E02DD8015C91638198
:102C000070E06115710509F469C3A281B0E0109705
:102C100009F469C300811181F8018081581314C03F
:102C200008C089012D5F3F4FF9013397408154134C
:102C300010C0D80111966C91119712964C91F70122
:102C400054A3611113C0DEC398012D5F3F4F80E094
:102C500090E001968617970709F44AC38A179B07E5
:102C600001F764E070E080E093E003C4C7010E94D4
:102C7000503A4B015C01E4C3D8012C913FEF320F75
:102C800081E090E002C0880F991F3A95E2F7092E83
:102C9000000CAA0BBB0BF701E15BFD4F408151819A
:102CA0006281738184239523A623B723892B8A2BE2
:102CB0008B2B09F4B0C3F70125A38181882309F484
:102CC000B2C3622FC7010E9487064B015C01672BCC
:102CD000682B692B09F0B4C3F701E65AFD4FD70101
:102CE00095968C918083ACC38EE1F801DE0111963C
:102CF00001900D928A95E1F7F701E15BFD4F0081AC
:102D0000118122813381E358F10940815181BE0153
:102D10006F5F7F4FC7010E9443044B015C01611547
:102D200071058105910521F0792D8A2D9B2DA1C377
:102D3000F701A2A1B3A18EE1FE01319601900D929F
:102D40008A95E1F77DC3F701ED5BFD4F808198EE39
:102D5000980F923020F08F7E803209F0CDC1FFE0D5
:102D6000DF1609F472C3D80114964D915C91159742
:102D70004115510509F4C9C10F2EFEE16F2E712CCA
:102D8000F02D02C0612C712CF801628173816115F4
:102D9000710509F468C380E090E0AA24A394B12CE3
:102DA000FFE0DF1210C0D8012D913C91D901A80F8E
:102DB000B91F95010C9002C0220F331F0A94E2F74D
:102DC000622A732A10C0F801A081B181A80FB91F2F
:102DD00095010C9002C0220F331F0A94E2F7209550
:102DE00030956222732201968417950709F43BC33C
:102DF00086179707A9F637C3D801ED91FC91EA0D24
:102E0000FB1D6081C401062E02C0880F991F0A9421
:102E1000E2F78621972141E0892B09F440E0C701C0
:102E20000E944B421B012C01611571058105910522
:102E300009F063C2BFEFAB1ABB0AF8018481958128
:102E4000A816B906C8F26DC1D70111968C918823D6
:102E500099F0F8016081C7010E94563C4B015C016A
:102E6000672B682B692B09F0EBC2D8018C91F70115
:102E7000E75AFD4F8083E4C2F8018081F701E75AE9
:102E8000FD4F8083812C912C5401DAC2D8016C91C2
:102E9000C7010E94733C4B015C01D2C20F2EF2E1CC
:102EA000CF2EF02D65E0F0C16894CC24C1F865E028
:102EB000EBC1C12C65E0E8C1CC24C39465E0E4C15A
:102EC0006894CC24C4F865E0DFC10F2EF1E1CF2E69
:102ED000F02D65E0D9C1F8018081F701E157FC4F81
:102EE0008083812C912C5401ABC20F2EF3E1CF2EA5
:102EF000F02D212C312C21014DC16894CC24C4F833
:102F000063E0C2C10F2EF1E1CF2EF02D63E0BCC112
:102F10000F2EF2E1CF2EF02D63E0B6C1F8018081D3
:102F20009181A281B381F701E253FE4F80839183A7
:102F3000A283B383812C912C540182C2D8011496B0
:102F40002D913C9115974D915C918E010F5F1F4F14
:102F500061E0C7010E94F83C4B015C0171C2F801BD
:102F60008181833039F128F4813041F0823079F069
:102F7000D0C08430B1F0853039F1CBC021E0408140
:102F800061E0C7010E946A484B015C0159C221E01F
:102F9000F801408162E0C7010E946A484B015C0170
:102FA0004FC221E0408164E0C7010E946A484B01A2
:102FB0005C0146C221E0F801408163E0C7010E9444
:102FC0006A484B015C013CC221E0408165E0C701D9
:102FD0000E946A484B015C0133C26BE0C7010E944A
:102FE00045664B015C012CC2F701EC58FE4F019085
:102FF000F081E02D309721F08081882309F481C190
:1030000061EC7FE0C7010E946A694B015C0118C254
:10301000F701EC58FE4F0190F081E02D309721F040
:103020008081882309F472C1F80180819181F701C0
:10303000E153FB4F91838083812C912C540100C27A
:10304000FDE4DF120EC0D8018D919C91885E934003
:1030500081329E4408F47CC165E071E080E092E03A
:1030600008C2AE014F5F5F4F65E0C7010E94DC6997
:103070001B012C01672B682B692B09F052C0EDE472
:10308000DE1621F0FEE4DF1639F00BC0D8018D9179
:103090009C919B838A8305C0F801908181E08927F8
:1030A0008983AE014F5F5F4F65E0C7010E94176AD9
:1030B0001B012C0136C0D8018C9111969C9186FF82
:1030C000B6C1F701EE52FB4F80839183812C912C86
:1030D0005401B6C10F2EF9E02F2E312C412CF3E014
:1030E0005F2EF02D1EC00F2EF5E02F2E312C412C1F
:1030F000F3E05F2EF02D15C00F2EF5E02F2E312CB2
:10310000412CF3E05F2EF02D0CC0212C312C21013D
:1031100008C00F2EF9E02F2E312C412CF3E05F2E4A
:10312000F02D8D2D90E0FC013797E533F10508F087
:10313000F2C0EE5BFE4F0C941A7261E0A801C70169
:103140000E94903C96C162E001C061E0F701ED5B36
:10315000FD4F808198EE980F923008F4E1C08F7E89
:10316000803209F4E2C0A801C7010E94903C4B01E3
:103170005C01611571058105910509F0DBC0F8015D
:103180008081F701E85AFD4F8083682D792D8A2DC3
:103190009B2D6FC10115110549F4F701E156FB4F55
:1031A0001082622D732D842D952D63C1F8018081CD
:1031B0009181A281B3818F3FFFEF9F07AF07BF07C8
:1031C0000CF4BCC0F80144815581668177814F3F82
:1031D000FFEF5F076F077F070CF4B5C08F3F9F4F6E
:1031E000AF4FBF4F79F44F3F5F4F6F4F7F4F51F459
:1031F000F701E156FB4F81E08083622D732D842D12
:10320000952D37C19E012F5F3F4F45E05C2D65E056
:10321000C7010E9437444B015C01611571058105AE
:10322000910569F581E0F701E156FB4F8083F801D4
:1032300080819181A281B3818F3F9F4FAF4FBF4F5C
:1032400049F489819A81AB81BC81F80180839183A3
:10325000A283B383F80184819581A681B7818F3FD2
:103260009F4FAF4FBF4F49F48D819E81AF81B8858D
:10327000F80184839583A683B78365E005C0792D23
:103280008A2D9B2DF6C065E09801462F5C2DC70165
:103290000E94823DEEC069E070E080E093E0E9C00A
:1032A00064E070E080E093E0E4C064E070E080E01F
:1032B00093E0DFC064E070E080E093E0DAC064E0B7
:1032C00070E080E093E0D5C067E075E080E092E0D8
:1032D000D0C067E075E080E092E0CBC064E070E0D1
:1032E00080E093E0C6C064E070E080E093E0C1C09D
:1032F00064E070E080E093E0BCC0732D842D952DD8
:10330000B8C063E070E080E093E0B3C063E070E0D9
:1033100080E093E0AEC0622D732D842D952DA9C061
:1033200063E070E080E093E0A4C063E070E080E0E0
:1033300093E09FC0792D8A2D9B2D9BC06EE070E09D
:1033400080E093E096C06EE070E080E093E091C092
:10335000AE014F5F5F4F65E0C7010E94DC691B0152
:103360002C01672B682B692B09F0DBCE8FCE61E037
:10337000E5CE64E0E3CE812C912C540161C0812C18
:10338000912C54015DC00F2EF6E08F2E912CA12CB4
:10339000F3E0BF2EF02D54C00F2EFEE08F2E912CA7
:1033A000A12CF3E0BF2EF02D4BC00F2EFEE08F2E90
:1033B000912CA12CF3E0BF2EF02D42C00F2EF9E08E
:1033C0008F2E912CA12CF3E0BF2EF02D39C00F2EA3
:1033D000F9E08F2E912CA12CF3E0BF2EF02D30C000
:1033E0000F2EF5E08F2E912CA12CF3E0BF2EF02DA7
:1033F00027C00F2EF6E08F2E912CA12CF3E0BF2ECC
:10340000F02D1EC00F2EF4E08F2E912CA12CF3E096
:10341000BF2EF02D15C00F2EF3E08F2E912CA12C76
:10342000B82CF02D0DC0812C912C540109C00F2E09
:10343000F5E08F2E99249394A12CF2E0BF2EF02D6D
:10344000682D792D8A2D9B2D14C0D80114964D918D
:103450005C9115974115510509F094CC60E070E03E
:1034600080E090E006C0A12CB12C88248394912C9C
:10347000C3CCCF5FDE4F0FB6F894DEBF0FBECDBF1B
:10348000DF91CF911F910F91FF90EF90DF90CF9040
:10349000BF90AF909F908F907F906F905F904F9074
:1034A0003F902F9008954F925F926F927F928F92EC
:1034B0009F92AF92BF92CF92EF92FF920F931F9382
:1034C000CF93DF93CDB7DEB72B013A010E94AD3524
:1034D000F301208131E0320F3083F201E20FF11D60
:1034E00021E02083F301208131E0320F3083EA892B
:1034F000FB892083DF91CF911F910F91FF90EF9077
:10350000CF90BF90AF909F908F907F906F905F9083
:103510004F900895BF92CF92DF92EF92FF920F9358
:103520001F93CF93DF93FC01C680CC2009F447C0E2
:10353000A081B181CD91DC9111974A855B8580E0B6
:10354000B12C60E0ED91FD914115510549F12285C5
:1035500033852115310561F14217530731F50E818D
:103560001F81E680F780F8012081F70190812913FF
:103570001CC090E00AC0F801E20FF31FD080F701F1
:10358000E20FF31F7081D71206C09F5F292F30E032
:103590002417350780F34217530739F4B39405C055
:1035A00022853385232B21F46F5F8F5F8C11CACF67
:1035B000CB1439F081E0C61629F080E003C081E029
:1035C00001C081E0DF91CF911F910F91FF90EF90AB
:1035D000DF90CF90BF9008952F923F924F925F92CD
:1035E0006F927F928F929F92AF92BF92CF92DF9213
:1035F000EF92FF920F931F93CF93DF93CDB7DEB778
:10360000C158D1090FB6F894DEBF0FBECDBF4C0133
:103610005B01DB0114960D911C91159701151105A5
:1036200009F08EC0FC01E453FE4FE080F18080E29F
:10363000CF57DF4F8883C158D040AE014F5B5F4FFB
:10364000BE016F577F4FC4010E94923E6115710504
:103650008105910509F0D5C0CF57DF4FC880C1580B
:10366000D040CC2009F462C0DE01AF5BBF4FCA94EA
:10367000D12CEFEFCE1ADE0ACC0CDD1CCA0EDB1EFD
:1036800060E00F2EF3E0AF2EF02DB12C11968C914F
:1036900011978823E9F1F7014381842F90E0009787
:1036A000B9F17C9140815181FA012181721323C0CB
:1036B00008C074809C012D5F3F4F3396771224C061
:1036C00003C0722F802F912FE62FF0E0EE0FFF1F27
:1036D00041E050E04C0F5D1F4E0F5F1FFA017083F9
:1036E000F70120813181820F931FFC018281FA0151
:1036F00081836F5F0DC0FA01AC01440F551F480F65
:10370000591F8A2D9B2D01C0C9014817590789F6F9
:103710001296AC15BD0509F0B9CF662361F0AE0174
:103720004F5F5F4FC4010E946E3A6BC064E070E06F
:1037300080E093E066C064E070E080E093E061C008
:10374000FC01E453FE4FC080D18060E070E0E12CCA
:10375000F12C0F2EF3E06F2EF02D512C412C312C3B
:103760002DC0F901AC014D5F5F4F2D5F3F4F2080B1
:1037700027101AC002C0842D932D2181FB01EE0F6A
:10378000FF1F41E050E04C0F5D1FE40FF51F208349
:10379000D6012D913C91D901A80FB91F12968C9199
:1037A00081836F5F7F4F04C0CA01A817B907C9F6AC
:1037B000BFEFEB1AFB0A0E151F05E9F0F601A38116
:1037C0008A2F90E00097A1F3D501ED91FC91EE0DC9
:1037D000FF1D7080D601ED91FC912081721659F287
:1037E0009F012D5F3F4FDC01AA0FBB1FA80FB91F20
:1037F000862D952DDACFAE014F5F5F4FC4010E9439
:103800006E3ACF57DF4F0FB6F894DEBF0FBECDBF75
:10381000DF91CF911F910F91FF90EF90DF90CF90AC
:10382000BF90AF909F908F907F906F905F904F90E0
:103830003F902F9008952F923F924F925F926F92F8
:103840007F928F929F92AF92BF92CF92DF92EF9230
:10385000FF920F931F93CF93DF9300D01F92CDB7AA
:10386000DEB77C016C0126E7C21A2DEFD20AFC01FB
:10387000EC57FD4F4080518062807380E85EFD4FC1
:1038800010820E94A469570184E7A81A8DEFB80A34
:10389000470191E7891A9DEF990AF701E357FD4F18
:1038A000FB83EA831701F2E72F1AFDEF3F0A93012A
:1038B000820142E2B601C7010E943D3061157105E7
:1038C0008105910539F065307105810521E0920788
:1038D00009F03FC0F50180818F3249F7F401808102
:1038E000823061F5F701E356FB4F80818330E9F4C4
:1038F0001982AE014F5F5F4F6BE1C7010E94903CA0
:10390000672B682B692B41F4F701E456FB4F1082BB
:1039100060E070E0CB012BC0F701E456FB4F81E083
:10392000808360E070E0CB0122C0F701E456FB4FDA
:1039300081E0808360E070E0CB0119C0EA81FB8107
:103940008081813009F0B3CFF10180818111AFCF47
:103950000BC0613071058105914009F0A8CF61E08D
:1039600070E080E091E003C060E070E0CB010F9078
:103970000F900F90DF91CF911F910F91FF90EF90DB
:10398000DF90CF90BF90AF909F908F907F906F907F
:103990005F904F903F902F9008952F923F924F92BB
:1039A0005F926F927F928F929F92AF92BF92CF92CF
:1039B000DF92EF92FF920F931F93CF93DF93CDB7D8
:1039C000DEB72E970FB6F894DEBF0FBECDBF3C0119
:1039D00028E8621A2EEF720AFC01EC55FB4F208199
:1039E0003181232B09F4C6C07C876B879E878D8726
:1039F00082E090E098878F83E12CF12C60E070E00A
:103A0000CB0163010D851E85015C1D4FED85FE8593
:103A1000E056FB4FFE83ED832D853E8528533E4FB8
:103A20003C832B83AD85BE85AC55BB4FBA87A98738
:103A30007A826982F2E0EF16F1049CF42F813885D6
:103A40002115310571F0AB81BC818D909D90AD90B9
:103A5000BC902150310938872F83B1E0EB1AF1086F
:103A60001BC0AD81BE81ED91FC919701220F331FE8
:103A7000220F331FE20FF31F80809180A280B3805A
:103A8000EB81FC81408051806280738084149504B6
:103A9000A604B70409F443C0D6011896ED91FC9131
:103AA0001997309759F0B501A40189819A81099538
:103AB000611571058105910509F061C0D6011C965B
:103AC000ED91FC911D9789819A8109956115710588
:103AD0008105910539F0623071058105B3E09B07DE
:103AE00009F051C0B8018D859E850E94A0326115F4
:103AF00071058105910559F1613071058105F1E08C
:103B00009F0781F08D859E850E941B1C61157105A4
:103B10008105910539F3E62F372F282F3CC053013B
:103B2000420100C03FEFE31AF30A17010F2C000C0B
:103B300044085508A985BA852D913C9140E050E094
:103B4000221633064406550608F474CF00C0AD852E
:103B5000BE85AC55BB4F2D913C912E153F05B9F05C
:103B6000EB85FC8580829182A282B382E62F372F7B
:103B7000282F11C0E1E030E020E091E00CC0E62FFA
:103B8000372F282F08C0E62F372F282F04C0E1E059
:103B900030E020E091E06E2F732F822F2E960FB62B
:103BA000F894DEBF0FBECDBFDF91CF911F910F9173
:103BB000FF90EF90DF90CF90BF90AF909F908F904D
:103BC0007F906F905F904F903F902F9008950F934C
:103BD0001F93CF93DF93CDB7DEB7A6970FB6F894B8
:103BE000DEBF0FBECDBF8C0182E0D8018C93F801FF
:103BF000E752FB4F24EA39E63183208332972FE4E2
:103C000032E13183208332972AE239E03183208305
:103C1000E957F2409CE0DF01292F1D922A95E9F730
:103C20003C96DF011D929A95E9F7E05AF10940E0D0
:103C300052EC61E070E04083518362837383EE56FF
:103C4000FF4F108277979FEF908374961082319682
:103C50001082319695E09083E758F10948E853E1E6
:103C600060E070E04083518362837383349648EE52
:103C700053E060E070E04083518362837383349645
:103C80001082E255FF4F11821082ED5FFE4F1082CD
:103C9000ED5BF1401082118212821382E154FE4FDB
:103CA000808332961082ED5FFE4F11821082329631
:103CB00011821082329681E08083319610821182C7
:103CC000128213823496108231968083319684E07A
:103CD000808331961082319610823196C8018A55C0
:103CE0009B4F91838083329688E090E0918380831C
:103CF000329611821082B29610823196108240E282
:103D0000E9E0F1E09E012F5F3F4FD90101900D9254
:103D10004A95E1F73AA329A39CA38BA39EA38DA365
:103D2000AE014F5D5F4F62E0C8010E942C05C801E3
:103D30000E94D205A6960FB6F894DEBF0FBECDBF87
:103D4000DF91CF911F910F9108952F923F924F9243
:103D50005F926F927F928F929F92AF92BF92CF921B
:103D6000DF92EF92FF920F931F93CF93DF93CDB724
:103D7000DEB72C970FB6F894DEBF0FBECDBFD501CE
:103D8000F801B080B982EC91EA83FB018080912C2C
:103D9000FAE38F16910410F00C946B2BBC87AB8761
:103DA000CD82DE82EF82F8861A87098719012A01FF
:103DB0009C838B83F401E958FE4F0C941A7262E0E5
:103DC00070E080E093E00C948A2BDA011F966D90EE
:103DD0007C905097EB81FC81E253FE4F8080918074
:103DE000A280B3801D96ED90FC901E97CE010296A6
:103DF0009F938F931C96CC9007E110E02D813E811C
:103E0000AE014F5F5F4FB1018B819C810E94531ABD
:103E1000F30121813281D901DF960C9140E050E01D
:103E2000BE016F5F7F4FC1010E94DB350F900F9085
:103E30000C94702BFA0167847088D30111968C91D1
:103E4000843030F081E0EB81FC81E256FB4F8083CF
:103E5000EB81FC81E253FE4F80809180A280B38091
:103E6000F201E584F684CE0102969F938F93C48479
:103E700007E110E02D813E81AE014F5F5F4FB10140
:103E80008B819C810E94531AD3011296ED90FD9074
:103E90000D911C911597812CA12C1696CC901697FC
:103EA00011962C9140ED57E0BE016F5F7F4FC1012D
:103EB0000E9417360F900F900C94702B81E0809326
:103EC000C704FA0167847088D30118968C911897FB
:103ED0008230E9F496963C91969797962C91979715
:103EE000EB81FC81E253FE4F94964C91949795960A
:103EF0008C9190E0A0E0B0E0DC0199278827B42BFA
:103F0000832B922B80839183A283B3830DC0F30113
:103F100082859385A485B585EB81FC81E253FE4FB4
:103F200080839183A283B383EB81FC81E253FE4FB4
:103F300080809180A280B380D2011D96ED90FC908C
:103F40001E97CE0102969F938F931C96CC9007E10B
:103F500010E02D813E81AE014F5F5F4FB1018B813B
:103F60009C810E94531AF301E280F3800481158141
:103F7000812CA780C680218140ED57E0BE016F5F94
:103F80007F4FC1010E9417361092C7040F900F9007
:103F90000C94702BDA011F966D907C905097EB81FA
:103FA000FC81E253FE4F80809180A280B3801D96F9
:103FB000ED90FC901E97CE0102969F938F931C96D6
:103FC000CC9007E110E02D813E81AE014F5F5F4F45
:103FD000B1018B819C810E94531AF301E280F3802E
:103FE00004811581218140E050E0BE016F5F7F4F69
:103FF000C1010E9490360F900F90D3011A968D91B7
:104000009C911B97892B11F40C94702B40E050E08D
:10401000898191E0980F9A01220F331FD101A80FD7
:10402000B11DF30166817781FB01E20FF31F61810E
:104030006C938E5F8983F101E90FF11DD301169610
:104040008D919C911797DC01A20FB31F8C918083F7
:104050004F5F5F4FF3018285938548175907C0F280
:104060000C94702BDA011F966D907C905097F301A1
:1040700085809680A780B0841D96ED90FC901E9759
:10408000CE0102969F938F931C96CC9007E110E08F
:104090002D813E81AE014F5F5F4FB1018B819C81CD
:1040A0000E94531AD30113960D911C9114971196E7
:1040B0002D913C911297C12CD12C760140E050E01B
:1040C000BE016F5F7F4FC1010E94E3360F900F90DA
:1040D0000C94702BFA0167847088EB81FC81E253A9
:1040E000FE4F80809180A280B380DA011D96ED9012
:1040F000FC901E97CE0102969F938F931C96CC90B6
:1041000007E110E02D813E81AE014F5F5F4FB101AD
:104110008B819C810E94531AF301018112812381BA
:10412000348140E050E0BE016F5F7F4FC1010E94CB
:1041300052370F900F900C94702BDA011F966D90F0
:104140007C905097EB81FC81E253FE4F8080918000
:10415000A280B3801D96ED90FC901E97CE01029632
:104160009F938F931C96CC9007E110E02D813E81A8
:10417000AE014F5F5F4FB1018B819C810E94531A4A
:10418000F30186809780A284B384C12CD12CE28075
:10419000F380048115811F921F921F921F921F921C
:1041A0001F92218140E050E0BE016F5F7F4FC1014F
:1041B0000E94A1370FB6F894DEBF0FBECDBF0C949E
:1041C000702BDA011F966D907C905097EB81FC81EB
:1041D000E253FE4F80809180A280B3801D96ED90C7
:1041E000FC901E97CE0102969F938F931C96CC90C5
:1041F00007E110E02D813E81AE014F5F5F4FB101BD
:104200008B819C810E94531AF301A380B480C580E6
:10421000D680018110E020E030E01F921F921F92B3
:104220001F921F921F9280858F9387818F93838522
:1042300094851F921F929F938F93E28040E050E0FD
:10424000BE016F5F7F4FC1010E949F380FB6F89487
:10425000DEBF0FBECDBF0C94702BDA011F966D90A0
:104260007C905097EB81FC81E253FE4F80809180DF
:10427000A280B3801D96ED90FC901E97CE01029611
:104280009F938F931C96CC9007E110E02D813E8187
:10429000AE014F5F5F4FB1018B819C810E94531A29
:1042A000F30102811381248135811F921F92812C99
:1042B000912C5401C680E18040E050E0BE016F5F68
:1042C0007F4FC1010E9492390F900F900F900F9075
:1042D0000C94702BDA011F966D907C905097EB81B7
:1042E000FC81E253FE4F80809180A280B3801D96B6
:1042F000ED90FC901E97CE0102969F938F931C9693
:10430000CC9007E110E02D813E81AE014F5F5F4F01
:10431000B1018B819C810E94531AD3011A96ED91B1
:10432000FC911B971296CD90DD90ED90FC90159727
:1043300016960D911D912D913C9119971F921F92E8
:104340004F01A7AC40E050E0BE016F5F7F4FC1015D
:104350000E94E84B0F900F900F900F900C94702BD1
:10436000FA0167847088EB81FC81E253FE4F808004
:104370009180A280B380DA011D96ED90FC901E978B
:10438000CE0102969F938F931C96CC9007E110E08C
:104390002D813E81AE014F5F5F4FB1018B819C81CA
:1043A0000E94531AD3011E96ED91FC911F971C9603
:1043B0008D909C901D971A96AD90BC901B9712966D
:1043C000CD90DD90ED90FC90159716960D911D9176
:1043D0002D913C9119971F921F92FF93EF9387ADF8
:1043E0008F9340E050E0BE016F5F7F4FC1010E949C
:1043F000824C0FB6F894DEBF0FBECDBF0C94702B6D
:10440000DA011F966D907C905097F3018280938023
:10441000A480B5801D96ED90FC901E97CE0102966B
:104420009F938F931C96CC9007E110E02D813E81E5
:10443000AE014F5F5F4FB1018B819C810E94531A87
:10444000D3015096ED91FC91519716968D909D90C9
:10445000AD90BC9019971A96CD90DD90ED90FC90A0
:104460001D9712960D911D912D913C9115971F92BC
:104470001F92FF93EF9387AD8F931F968C911F9799
:104480008F931E968C918F9340E050E0BE016F5F3A
:104490007F4FC1010E944F4D0FB6F894DEBF0FBE93
:1044A000CDBF0C94702BDA011F966D907C905097C5
:1044B000F30182809380A480B5801D96ED90FC90DE
:1044C0001E97CE0102969F938F931C96CC9007E186
:1044D00010E02D813E81AE014F5F5F4FB1018B81B6
:1044E0009C810E94531AD3015096ED91FC915197F3
:1044F00016968D909D90AD90BC9019971A96CD9080
:10450000DD90ED90FC901D9712960D911D912D91CF
:104510003C9115971F921F9281818F9380818F9379
:1045200084818F931F968C911F978F931E968C91E9
:104530008F9340E050E0BE016F5F7F4FC1010E944A
:10454000854E0FB6F894DEBF0FBECDBF0C94702B16
:10455000DA011F966D907C905097F30182809380D2
:10456000A480B5801D96ED90FC901E97CE0102961A
:104570009F938F931C96CC9007E110E02D813E8194
:10458000AE014F5F5F4FB1018B819C810E94531A36
:10459000D30112960D911D912D913C911597C12C2F
:1045A000D12C1696EC9040E050E0BE016F5F7F4F3B
:1045B000C1010E94BB4F0F900F900C94702BFA0119
:1045C00067847088D30112968D909D90AD90BC90B9
:1045D0001597E584F684CE0102969F938F93C48449
:1045E00007E110E02D813E81AE014F5F5F4FB101C9
:1045F0008B819C810E94531AF301E280F380048135
:104600001581D2011F96ED91FC915097C12CD12CB0
:10461000218140E050E0BE016F5F7F4FC1010E94E9
:1046200074500F900F900C94702BFA01678470886F
:10463000D30111968C911197823011F40C94812B37
:1046400012968D909D90AD90BC901597E584F68460
:10465000CE0102969F938F93C48407E110E02D81D1
:104660003E81AE014F5F5F4FB1018B819C810E9403
:10467000531AF301E280F38004811581D2011F9661
:10468000ED91FC915097C12CD12C218140E050E05C
:10469000BE016F5F7F4FC1010E941F510F900F90AD
:1046A0000C94702BFA0167847088D30112968D9058
:1046B0009D90AD90BC901597E584F684CE0102964E
:1046C0009F938F93C48407E110E02D813E81AE015A
:1046D0004F5F5F4FB1018B819C810E94531AF301A0
:1046E000E280F38004811581D2011F96ED91FC9147
:1046F0005097A12CB12CD3011696CC90218140E08B
:1047000050E0BE016F5F7F4FC1010E94CA510F9000
:104710000F90E6C7FA0167847088D30112968D90D6
:104720009D90AD90BC901597E584F684CE010296DD
:104730009F938F93C48407E110E02D813E81AE01E9
:104740004F5F5F4FB1018B819C810E94531AF3012F
:10475000E280F38004811581D2011F96ED91FC91D6
:104760005097C12CD12C218140E050E0BE016F5FF9
:104770007F4FC1010E9492520F900F90B1C7FA0172
:1047800067847088D30111968C911197823009F457
:10479000BDC712968D909D90AD90BC901597E58405
:1047A000F684CE0102969F938F93C48407E110E0B4
:1047B0002D813E81AE014F5F5F4FB1018B819C81A6
:1047C0000E94531AF301C680D780D2011F96ED9143
:1047D000FC915097A12CB12CE12CF12C8701218167
:1047E00040E050E0BE016F5F7F4FC1010E943C532B
:1047F0000F900F9075C7DA011F96ED91FC915097BD
:104800003F01B2E06B0E711C82809380A480B58062
:10481000FA01E584F684CE0102969F938F93C484B7
:1048200007E110E02D813E81AE014F5F5F4FB10186
:104830008B819C810E94531AD3011596CD90DC90F8
:104840001697A12CB12C1496EC9000E010E0980182
:1048500040E050E0BE016F5F7F4FC1010E94DA531C
:104860000F900F903DC7FA0167847088D3011896A6
:104870008D909D90AD90BC901B97E584F684CE0101
:1048800002969F938F93C48407E110E02D813E81AF
:10489000AE014F5F5F4FB1018B819C810E94531A23
:1048A000F301A484B584C684D7841F921F928281A9
:1048B0008F938380E78000E010E0980140E050E0B3
:1048C000BE016F5F7F4FC1010E943C550F900F905A
:1048D0000F900F900F9004C7DA011F966D907C9097
:1048E0005097F30180849184A284B3841D96ED9047
:1048F000FC901E97CE0102969F938F931C96CC90AE
:1049000007E110E02D813E81AE014F5F5F4FB101A5
:104910008B819C810E94531AD3011C96AD90BD904F
:10492000CD90DC901F971F921F9213968C90139737
:104930001796EC9000E010E0980140E050E0BE01D6
:104940006F5F7F4FC1010E94FD550F900F900F9038
:104950000F90F20167847088D30118968D909D9016
:10496000AD90BC901B97E584F684CE0102969F9390
:104970008F93C48407E110E02D813E81AE014F5F2B
:104980005F4FB1018B819C810E94531AF301A48473
:10499000B584C684D7841F921F928380E78000E08D
:1049A00010E0980140E050E0BE016F5F7F4FC10111
:1049B0000E94B4560F900F900F900F9091C6DA019D
:1049C0001F966D907C905097F30180849184A2840F
:1049D000B3841D96ED90FC901E97CE0102969F9396
:1049E0008F931C96CC9007E110E02D813E81AE01A3
:1049F0004F5F5F4FB1018B819C810E94531AD3019D
:104A00001C96AD90BD90CD90DC901F971F921F9289
:104A100055968C9155978F9354968C9154978F936C
:104A200053968C9153978F9352968C9152978F9364
:104A300051968C9151978F9350968C9150978F935C
:104A400016968C9116978F9314968C9114978F933A
:104A500013968C9013971796EC9000E010E0980155
:104A600040E050E0BE016F5F7F4FC1010E946B5775
:104A70000FB6F894DEBF0FBECDBF32C6DA011F9667
:104A80006D907C905097F30185849684A784B088BC
:104A90001D96ED90FC901E97CE0102969F938F93EA
:104AA0001C96CC9007E110E02D813E81AE014F5F56
:104AB0005F4FB1018B819C810E94531AD3015196A3
:104AC000AD90BD90CD90DC9054971F921F92189698
:104AD0008C9118978F9317968C9117978F93569662
:104AE0008C9156978F9355968C9155978F931396DB
:104AF0008C9013971C96EC9000E010E0980140E039
:104B000050E0BE016F5F7F4FC1010E94BF580FB6DA
:104B1000F894DEBF0FBECDBFE3C5DA011F966D90DE
:104B20007C905097F30180849184A284B3841D9675
:104B3000ED90FC901E97CE0102969F938F931C964A
:104B4000CC9007E110E02D813E81AE014F5F5F4FB9
:104B5000B1018B819C810E94531AD3011C96AD90A8
:104B6000BD90CD90DC901F971F921F9213968C9052
:104B700013971796EC9000E010E0980140E050E0A9
:104B8000BE016F5F7F4FC1010E94AC590F900F9023
:104B90000F900F90A5C5FA0167847088D30118960D
:104BA0008D909D90AD90BC901B97E584F684CE01CE
:104BB00002969F938F93C48407E110E02D813E817C
:104BC000AE014F5F5F4FB1018B819C810E94531AF0
:104BD000F301A484B584C684D7841F921F92808970
:104BE0008F9384898F9383898F9382898F9381890F
:104BF0008F938380E78000E010E0980140E050E070
:104C0000BE016F5F7F4FC1010E94635A0FB6F894D7
:104C1000DEBF0FBECDBF64C5DA011F966D907C90DC
:104C20005097F30180849184A284B3841D96ED9003
:104C3000FC901E97CE0102969F938F931C96CC906A
:104C400007E110E02D813E81AE014F5F5F4FB10162
:104C50008B819C810E94531AD3011C96AD90BD900C
:104C6000CD90DC901F971F921F9253968C91539773
:104C70008F9352968C9152978F9351968C91519716
:104C80008F9350968C9150978F9313968C90139787
:104C90001796EC9000E010E0980140E050E0BE0173
:104CA0006F5F7F4FC1010E94B35D0FB6F894DEBF06
:104CB0000FBECDBF15C5DA011F966D907C90509741
:104CC000F30180849184A284B3841D96ED90FC90BE
:104CD0001E97CE0102969F938F931C96CC9007E16E
:104CE00010E02D813E81AE014F5F5F4FB1018B819E
:104CF0009C810E94531AD3011C96AD90BD90CD901B
:104D0000DC901F971F921F9250968C9150978F9313
:104D100013968C9013971796EC9000E010E0980192
:104D200040E050E0BE016F5F7F4FC1010E945A5BBF
:104D30000F900F900F900F900F90D2C4FA016784DC
:104D40007088D30118968D909D90AD90BC901B9764
:104D5000E584F684CE0102969F938F93C48407E185
:104D600010E02D813E81AE014F5F5F4FB1018B811D
:104D70009C810E94531AF301A484B584C684D7840D
:104D80001F921F9281898F9380898F938380E78000
:104D900000E010E0980140E050E0BE016F5F7F4FFF
:104DA000C1010E941B5C0F900F900F900F900F900D
:104DB0000F9096C4DA011F966D907C905097F30186
:104DC00080849184A284B3841D96ED90FC901E97FC
:104DD000CE0102969F938F931C96CC9007E110E032
:104DE0002D813E81AE014F5F5F4FB1018B819C8170
:104DF0000E94531AD3011C96AD90BD90CD90DC90CB
:104E00001F971F921F9252968C9152978F93519693
:104E10008C9151978F9350968C9150978F931396B6
:104E20008C9013971796EC9000E010E0980140E00A
:104E300050E0BE016F5F7F4FC1010E94DE5C0FB684
:104E4000F894DEBF0FBECDBF4BC4DA011F966D9044
:104E50007C905097F30180849184A284B3841D9642
:104E6000ED90FC901E97CE0102969F938F931C9617
:104E7000CC9007E110E02D813E81AE014F5F5F4F86
:104E8000B1018B819C810E94531AD3011C96AD9075
:104E9000BD90CD90DC901F971F921F9213968C901F
:104EA00013971796EC9000E010E0980140E050E076
:104EB000BE016F5F7F4FC1010E94A05E0F900F90F7
:104EC0000F900F900DC4FA0167847088D301189673
:104ED0008D909D90AD90BC901B97E584F684CE019B
:104EE00002969F938F93C48407E110E02D813E8149
:104EF000AE014F5F5F4FB1018B819C810E94531ABD
:104F0000F301A484B584C684D7841F921F92878935
:104F10008F9386898F9385898F9384898F938389D3
:104F20008F9382898F9381898F9380898F938380D8
:104F3000E78000E010E0980140E050E0BE016F5FC4
:104F40007F4FC1010E94575F0FB6F894DEBF0FBEBE
:104F5000CDBFC6C3DA011F966D907C905097F301C8
:104F600080849184A284B3841D96ED90FC901E975A
:104F7000CE0102969F938F931C96CC9007E110E090
:104F80002D813E81AE014F5F5F4FB1018B819C81CE
:104F90000E94531AD3011C96AD90BD90CD90DC9029
:104FA0001F971F921F925096ED91FC91519781810E
:104FB0008F9380818F9313968C9013971796EC9014
:104FC00000E010E0980140E050E0BE016F5F7F4FCD
:104FD000C1010E948E600F900F900F900F900F9064
:104FE0000F907EC3FA0167847088D30118968D9064
:104FF0009D90AD90BC901B97E584F684CE010296FF
:105000009F938F93C48407E110E02D813E81AE0110
:105010004F5F5F4FB1018B819C810E94531AF30156
:10502000A484B584C684D7841F921F9280898F93ED
:105030008380E78000E010E0980140E050E0BE018E
:105040006F5F7F4FC1010E947B540F900F900F90B4
:105050000F900F9045C3DA011F966D907C9050978A
:10506000F30180849184A284B3841D96ED90FC901A
:105070001E97CE0102969F938F931C96CC9007E1CA
:1050800010E02D813E81AE014F5F5F4FB1018B81FA
:105090009C810E94531AD3011C96AD90BD90CD9077
:1050A000DC901F971F921F9257968C9157978F9362
:1050B00056968C9156978F9355968C9155978F93C2
:1050C00054968C9154978F9353968C9153978F93BA
:1050D00052968C9152978F9351968C9151978F93B2
:1050E00050968C9150978F9313968C901397179698
:1050F000EC9000E010E0980140E050E0BE016F5FEE
:105100007F4FC1010E945F610FB6F894DEBF0FBEF2
:10511000CDBFE6C2DA011F966D907C905097EB816F
:10512000FC81E253FE4F80809180A280B3801D9667
:10513000ED90FC901E97CE0102969F938F931C9644
:10514000CC9007E110E02D813E81AE014F5F5F4FB3
:10515000B1018B819C810E94531AA12CB12CF301C7
:10516000C380E28000E010E0980140E050E0BE0122
:105170006F5F7F4FC1010E94B7620F900F90B0C266
:10518000DA011F966D907C905097EB81FC81E25381
:10519000FE4F80809180A280B3801D96ED90FC90A0
:1051A0001E97CE0102969F938F931C96CC9007E199
:1051B00010E02D813E81AE014F5F5F4FB1018B81C9
:1051C0009C810E94531AA12CB12CF301C380E28070
:1051D00000E010E0980140E050E0BE016F5F7F4FBB
:1051E000C1010E94B7620F900F907AC2DA011F9638
:1051F0006D907C905097EB81FC81E253FE4F808054
:105200009180A280B3801D96ED90FC901E97CE01F8
:1052100002969F938F931C96CC9007E110E02D810E
:105220003E81AE014F5F5F4FB1018B819C810E9437
:10523000531AC30105969F938F93F3018480A12C89
:10524000B12CC380E28000E010E0980140E050E023
:10525000BE016F5F7F4FC1010E94AA630F900F9044
:105260000F900F903DC2DA011F966D907C90509781
:10527000EB81FC81E253FE4F80809180A280B3805D
:105280001D96ED90FC901E97CE0102969F938F93F2
:105290001C96CC9007E110E02D813E81AE014F5F5E
:1052A0005F4FB1018B819C810E94531AA12CB12CBC
:1052B000F301C380E28000E010E0980140E050E09C
:1052C000BE016F5F7F4FC1010E94B7620F900F90C8
:1052D00007C2DA011F966D907C905097EB81FC819C
:1052E000E253FE4F80809180A280B3801D96ED90A6
:1052F000FC901E97CE0102969F938F931C96CC90A4
:1053000007E110E02D813E81AE014F5F5F4FB1019B
:105310008B819C810E94531AA12CB12CF301C38074
:10532000E28000E010E0980140E050E0BE016F5FD5
:105330007F4FC1010E94B7620F900F90D1C1DA0177
:105340001F966D907C905097EB81FC81E253FE4F4D
:1053500080809180A280B3801D96ED90FC901E9776
:10536000CE0102969F938F931C96CC9007E110E09C
:105370002D813E81AE014F5F5F4FB1018B819C81DA
:105380000E94531AA12CB12CF301C380E28000E0EB
:1053900010E0980140E050E0BE016F5F7F4FC10117
:1053A0000E94B7620F900F909BC1DA011F966D901B
:1053B0007C905097EB81FC81E253FE4F808091807E
:1053C000A280B3801D96ED90FC901E97CE010296B0
:1053D0009F938F931C96CC9007E110E02D813E8126
:1053E000AE014F5F5F4FB1018B819C810E94531AC8
:1053F000F30184809580A12CB12CC380E28000E071
:1054000010E0980140E050E0BE016F5F7F4FC101A6
:105410000E9440630F900F9063C1DA011F966D9058
:105420007C905097EB81FC81E253FE4F808091800D
:10543000A280B3801D96ED90FC901E97CE0102963F
:105440009F938F931C96CC9007E110E02D813E81B5
:10545000AE014F5F5F4FB1018B819C810E94531A57
:10546000F30184809580A12CB12CC380E28000E000
:1054700010E0980140E050E0BE016F5F7F4FC10136
:105480000E9475630F900F902BC1DA011F966D90EB
:105490007C905097EB81FC81E253FE4F808091809D
:1054A000A280B3801D96ED90FC901E97CE010296CF
:1054B0009F938F931C96CC9007E110E02D813E8145
:1054C000AE014F5F5F4FB1018B819C810E94531AE7
:1054D000F3018480958083858F9382858F93818566
:1054E0008F9380858F9387818F9386818F93A12C53
:1054F000B12CC380E28000E010E0980140E050E071
:10550000BE016F5F7F4FC1010E94DF630FB6F89449
:10551000DEBF0FBECDBFE4C0DA011F966D907C9058
:105520005097EB81FC81E253FE4F80809180A280F6
:10553000B3801D96ED90FC901E97CE0102969F932E
:105540008F931C96CC9007E110E02D813E81AE0137
:105550004F5F5F4FB1018B819C810E94531AF30111
:105560008480958087818F9386818F93A12CB12C25
:10557000C380E28000E010E0980140E050E0BE010E
:105580006F5F7F4FC1010E94C7640F900F900F9013
:105590000F90A6C0DA011F966D907C905097EB811A
:1055A000FC81E253FE4F80809180A280B3801D96E3
:1055B000ED90FC901E97CE0102969F938F931C96C0
:1055C000CC9007E110E02D813E81AE014F5F5F4F2F
:1055D000B1018B819C810E94531AC12CD12CF30103
:1055E000E28000E010E0980140E050E0BE016F5F13
:1055F0007F4FC1010E9452640F900F9071C0DA0179
:105600001F966D907C905097EB81FC81E253FE4F8A
:1056100080809180A280B3801D96ED90FC901E97B3
:10562000CE0102969F938F931C96CC9007E110E0D9
:105630002D813E81AE014F5F5F4FB1018B819C8117
:105640000E94531AA12CB12CF301C380E28000E028
:1056500010E0980140E050E0BE016F5F7F4FC10154
:105660000E94B7620F900F903BC0DA011F966D90B9
:105670007C905097EB81FC81E253FE4F80809180BB
:10568000A280B3801D96ED90FC901E97CE010296ED
:105690009F938F931C96CC9007E110E02D813E8163
:1056A000AE014F5F5F4FB1018B819C810E94531A05
:1056B000A12CB12CF301C380E28000E010E098013E
:1056C00040E050E0BE016F5F7F4FC1010E94B762B2
:1056D0000F900F9005C061E070E080E093E01AC089
:1056E0008981A985BA858C938A81EB85FC85808325
:1056F00060E070E0CB010EC063E070E080E093E01A
:1057000009C063E070E080E093E004C063E070E013
:1057100080E093E02C960FB6F894DEBF0FBECDBFAD
:10572000DF91CF911F910F91FF90EF90DF90CF907D
:10573000BF90AF909F908F907F906F905F904F90B1
:105740003F902F9008956623C9F1DC01AC01460F0C
:10575000511D8FEF9FEF6D919C0122953295307F07
:105760003227207F3227762F72957F70272BFC01FE
:10577000EF2FFF27E295EF70EE0FFF1FE15CFD4F6B
:105780008081918128273927C90182959295907F40
:105790009827807F98276F70862BF901EF2FFF27BE
:1057A000E295EF70EE0FFF1FE15CFD4F208131812C
:1057B00082279327A417B50771F608958FEF9FEFFF
:1057C0000895AF92CF92DF92EF92FF920F931F93C3
:1057D000CF93DF93F9019091C704992319F090E4D6
:1057E000DA019C936115710559F4C114D104E104E7
:1057F000F10431F4EA01188260E070E0CB019BC251
:10580000853009F067C1AA2009F44DC06115710502
:1058100051F1DB018C91813031F512968C918630FB
:1058200009F451C0808191E0980F9083D801A80FAE
:10583000B11DFC92808191E0980F9083D801A80F50
:10584000B11DEC92808191E0980F9083D801A80F50
:10585000B11DDC92808191E0980F9083D801A80F50
:10586000B11DCC922BC0808191E0980F9083D8011C
:10587000A80FB11DFC92808191E0980F9083D80110
:10588000A80FB11DEC92808191E0980F9083D80110
:10589000A80FB11DDC92808191E0980F9083D80110
:1058A000A80FB11DCC926115710541F4EA01888100
:1058B0008560888360E070E0CB013DC2DB018C91A4
:1058C000813009F0B2C0EB018A81813029F4DA011C
:1058D0008C9184608C9304C0EA019881892B888321
:1058E000DB0112968C9112978630C9F417969C9121
:1058F000179718962C91808131E0380F3083D801AA
:10590000A80FB11D2C93808121E0280F2083F8017E
:10591000E80FF11D908360E070E0CB010CC2EB0159
:105920008981882321F0DA018C9188608C93EB01C6
:105930008F8198858F3F910529F020F0DA018C91B5
:1059400080628C93EB019B812C813D814E81808113
:1059500051E0580F5083D801A80FB11D4C9380819E
:1059600041E0480F4083D801A80FB11D3C938081CE
:1059700031E0380F3083D801A80FB11D2C938081FE
:1059800021E0280F2083D801A80FB11D9C938F819F
:1059900098858F3F910551F048F0808191E0980FF4
:1059A0009083D801A80FB11D88858C937F016B016E
:1059B000808191E0980F9083F801E80FF11DDB01E1
:1059C00017968C9117978083F701C081D0E02196BC
:1059D00017968D919C9118970E94596A8C0F9D1F64
:1059E000813091400CF082C1C0E0D0E012C0D701FC
:1059F0008C9191E0980F9C93D6011996ED91FC91B2
:105A00001A97EC0FFD1F9081F801E80FF11D9083AC
:105A10002196F601878190850E94596AC817D90797
:105A200034F360E070E0CB0186C1811164C1DB0119
:105A3000A05CBF4F8C9190E0880F991F880F991F31
:105A4000880F991FDA012C918F3F910509F01CF402
:105A500021602C930BC02162EA012883208131E070
:105A6000320F3083D801A20FB11D9C93908121E0A9
:105A7000290F2083D801A90FB11D8C93DB01A05CF5
:105A8000BF4F2C9130E0808190E00196820F931FF0
:105A9000813091400CF034C1121613060CF035C160
:105AA000DF9720E030E0605C7F4F808191E0980FCD
:105AB00090839D91E801C80FD11D98832F5F3F4FC0
:105AC000EB01888190E0281739077CF360E070E0F3
:105AD000CB0131C1833009F01CC14115510519F0CA
